{
    "_format": "hh-sol-artifact-1",
    "contractName": "Transactions",
    "sourceName": "contracts/Transactions.sol",
    "abi": [
        {
            "anonymous": false,
            "inputs": [
                {
                    "indexed": false,
                    "internalType": "address",
                    "name": "from",
                    "type": "address"
                },
                {
                    "indexed": false,
                    "internalType": "address",
                    "name": "recevier",
                    "type": "address"
                },
                {
                    "indexed": false,
                    "internalType": "uint256",
                    "name": "amount",
                    "type": "uint256"
                },
                {
                    "indexed": false,
                    "internalType": "string",
                    "name": "message",
                    "type": "string"
                },
                {
                    "indexed": false,
                    "internalType": "uint256",
                    "name": "timestamp",
                    "type": "uint256"
                },
                {
                    "indexed": false,
                    "internalType": "string",
                    "name": "keyword",
                    "type": "string"
                }
            ],
            "name": "Transfer",
            "type": "event"
        },
        {
            "inputs": [
                {
                    "internalType": "address payable",
                    "name": "recevier",
                    "type": "address"
                },
                {
                    "internalType": "uint256",
                    "name": "amount",
                    "type": "uint256"
                },
                {
                    "internalType": "string",
                    "name": "message",
                    "type": "string"
                },
                {
                    "internalType": "string",
                    "name": "keyword",
                    "type": "string"
                }
            ],
            "name": "addToBlockchain",
            "outputs": [],
            "stateMutability": "nonpayable",
            "type": "function"
        },
        {
            "inputs": [],
            "name": "getAllTransaction",
            "outputs": [
                {
                    "components": [
                        {
                            "internalType": "address",
                            "name": "sender",
                            "type": "address"
                        },
                        {
                            "internalType": "address",
                            "name": "recevier",
                            "type": "address"
                        },
                        {
                            "internalType": "uint256",
                            "name": "amount",
                            "type": "uint256"
                        },
                        {
                            "internalType": "string",
                            "name": "message",
                            "type": "string"
                        },
                        {
                            "internalType": "uint256",
                            "name": "timestamp",
                            "type": "uint256"
                        },
                        {
                            "internalType": "string",
                            "name": "keyword",
                            "type": "string"
                        }
                    ],
                    "internalType": "struct Transactions.TransferStruct[]",
                    "name": "",
                    "type": "tuple[]"
                }
            ],
            "stateMutability": "view",
            "type": "function"
        },
        {
            "inputs": [],
            "name": "getTransactionCount",
            "outputs": [
                {
                    "internalType": "uint256",
                    "name": "",
                    "type": "uint256"
                }
            ],
            "stateMutability": "view",
            "type": "function"
        }
    ],
    "bytecode": "0x608060405234801561001057600080fd5b506107a6806100206000396000f3fe608060405234801561001057600080fd5b50600436106100415760003560e01c80632e7700f014610046578063add6415d1461005c578063cc2d7ead14610071575b600080fd5b6000546040519081526020015b60405180910390f35b610064610086565b60405161005391906104c7565b61008461007f36600461062b565b610241565b005b60606001805480602002602001604051908101604052809291908181526020016000905b828210156102385760008481526020908190206040805160c0810182526006860290920180546001600160a01b0390811684526001820154169383019390935260028301549082015260038201805491929160608401919061010b906106b7565b80601f0160208091040260200160405190810160405280929190818152602001828054610137906106b7565b80156101845780601f1061015957610100808354040283529160200191610184565b820191906000526020600020905b81548152906001019060200180831161016757829003601f168201915b50505050508152602001600482015481526020016005820180546101a7906106b7565b80601f01602080910402602001604051908101604052809291908181526020018280546101d3906106b7565b80156102205780601f106101f557610100808354040283529160200191610220565b820191906000526020600020905b81548152906001019060200180831161020357829003601f168201915b505050505081525050815260200190600101906100aa565b50505050905090565b600160008082825461025391906106f2565b90915550506040805160c0810182523381526001600160a01b0386811660208084019182529383018781526060840187815242608086015260a08501879052600180548082018255600091909152855160069091027fb10e2d527612073b26eecdfd717e6a320cf44b4afac2b0732d9fcbe2b7fa0cf6810180549287166001600160a01b031993841617815594517fb10e2d527612073b26eecdfd717e6a320cf44b4afac2b0732d9fcbe2b7fa0cf7820180549190971692169190911790945590517fb10e2d527612073b26eecdfd717e6a320cf44b4afac2b0732d9fcbe2b7fa0cf884015551805193949193610371937fb10e2d527612073b26eecdfd717e6a320cf44b4afac2b0732d9fcbe2b7fa0cf9019291909101906103e1565b506080820151600482015560a082015180516103979160058401916020909101906103e1565b5050507f416cfa4330a4565f45c2fd2dd4826a83a37443aba2ce6f79477c7355afac35fa3385858542866040516103d396959493929190610718565b60405180910390a150505050565b8280546103ed906106b7565b90600052602060002090601f01602090048101928261040f5760008555610455565b82601f1061042857805160ff1916838001178555610455565b82800160010185558215610455579182015b8281111561045557825182559160200191906001019061043a565b50610461929150610465565b5090565b5b808211156104615760008155600101610466565b6000815180845260005b818110156104a057602081850181015186830182015201610484565b818111156104b2576000602083870101525b50601f01601f19169290920160200192915050565b60006020808301818452808551808352604092508286019150828160051b87010184880160005b8381101561057a57888303603f19018552815180516001600160a01b039081168552888201511688850152868101518785015260608082015160c0828701819052919061053d8388018261047a565b92505050608080830151818701525060a08083015192508582038187015250610566818361047a565b9689019694505050908601906001016104ee565b509098975050505050505050565b634e487b7160e01b600052604160045260246000fd5b600082601f8301126105af57600080fd5b813567ffffffffffffffff808211156105ca576105ca610588565b604051601f8301601f19908116603f011681019082821181831017156105f2576105f2610588565b8160405283815286602085880101111561060b57600080fd5b836020870160208301376000602085830101528094505050505092915050565b6000806000806080858703121561064157600080fd5b84356001600160a01b038116811461065857600080fd5b935060208501359250604085013567ffffffffffffffff8082111561067c57600080fd5b6106888883890161059e565b9350606087013591508082111561069e57600080fd5b506106ab8782880161059e565b91505092959194509250565b600181811c908216806106cb57607f821691505b602082108114156106ec57634e487b7160e01b600052602260045260246000fd5b50919050565b6000821982111561071357634e487b7160e01b600052601160045260246000fd5b500190565b6001600160a01b038781168252861660208201526040810185905260c06060820181905260009061074b9083018661047a565b84608084015282810360a0840152610763818561047a565b999850505050505050505056fea264697066735822122016bb555209594d8a8331ffc2e02a26ecf6f1f72292bf26c738fdeea110ed25ff64736f6c63430008090033",
    "linkReferences": {},
    "deployedLinkReferences": {}
}